{
  "contractName": "Employee",
  "abi": [
    {
      "anonymous": false,
      "inputs": [
        {
          "components": [
            {
              "internalType": "string",
              "name": "id",
              "type": "string"
            },
            {
              "internalType": "string",
              "name": "firstName",
              "type": "string"
            },
            {
              "internalType": "string",
              "name": "lastName",
              "type": "string"
            },
            {
              "internalType": "string",
              "name": "email",
              "type": "string"
            },
            {
              "internalType": "string",
              "name": "date",
              "type": "string"
            },
            {
              "internalType": "string",
              "name": "education",
              "type": "string"
            },
            {
              "internalType": "string",
              "name": "designation",
              "type": "string"
            },
            {
              "internalType": "string[3]",
              "name": "techStack",
              "type": "string[3]"
            },
            {
              "internalType": "string",
              "name": "location",
              "type": "string"
            },
            {
              "internalType": "string",
              "name": "remarks",
              "type": "string"
            }
          ],
          "indexed": false,
          "internalType": "struct Employee.EmployeeData",
          "name": "",
          "type": "tuple"
        }
      ],
      "name": "NewEmployee",
      "type": "event"
    },
    {
      "inputs": [],
      "name": "employeeCount",
      "outputs": [
        {
          "internalType": "uint256",
          "name": "",
          "type": "uint256"
        }
      ],
      "stateMutability": "view",
      "type": "function",
      "constant": true
    },
    {
      "inputs": [
        {
          "internalType": "uint256",
          "name": "",
          "type": "uint256"
        }
      ],
      "name": "employeeList",
      "outputs": [
        {
          "internalType": "string",
          "name": "id",
          "type": "string"
        },
        {
          "internalType": "string",
          "name": "firstName",
          "type": "string"
        },
        {
          "internalType": "string",
          "name": "lastName",
          "type": "string"
        },
        {
          "internalType": "string",
          "name": "email",
          "type": "string"
        },
        {
          "internalType": "string",
          "name": "date",
          "type": "string"
        },
        {
          "internalType": "string",
          "name": "education",
          "type": "string"
        },
        {
          "internalType": "string",
          "name": "designation",
          "type": "string"
        },
        {
          "internalType": "string",
          "name": "location",
          "type": "string"
        },
        {
          "internalType": "string",
          "name": "remarks",
          "type": "string"
        }
      ],
      "stateMutability": "view",
      "type": "function",
      "constant": true
    },
    {
      "inputs": [
        {
          "components": [
            {
              "internalType": "string",
              "name": "id",
              "type": "string"
            },
            {
              "internalType": "string",
              "name": "firstName",
              "type": "string"
            },
            {
              "internalType": "string",
              "name": "lastName",
              "type": "string"
            },
            {
              "internalType": "string",
              "name": "email",
              "type": "string"
            },
            {
              "internalType": "string",
              "name": "date",
              "type": "string"
            },
            {
              "internalType": "string",
              "name": "education",
              "type": "string"
            },
            {
              "internalType": "string",
              "name": "designation",
              "type": "string"
            },
            {
              "internalType": "string[3]",
              "name": "techStack",
              "type": "string[3]"
            },
            {
              "internalType": "string",
              "name": "location",
              "type": "string"
            },
            {
              "internalType": "string",
              "name": "remarks",
              "type": "string"
            }
          ],
          "internalType": "struct Employee.EmployeeData",
          "name": "_employee",
          "type": "tuple"
        }
      ],
      "name": "addEmployee",
      "outputs": [],
      "stateMutability": "payable",
      "type": "function",
      "payable": true
    }
  ],
  "bytecode": "0x6080604052600060015534801561001557600080fd5b5061127c806100256000396000f3fe6080604052600436106100345760003560e01c806350bb9da4146100395780639047bf5814610055578063c3b2d07a14610080575b600080fd5b610053600480360381019061004e9190610d0a565b6100c5565b005b34801561006157600080fd5b5061006a61024e565b6040516100779190610d6c565b60405180910390f35b34801561008c57600080fd5b506100a760048036038101906100a29190610db3565b610254565b6040516100bc99989796959493929190610e68565b60405180910390f35b80600080600154815260200190815260200160002060008201518160000190805190602001906100f692919061076a565b50602082015181600101908051906020019061011392919061076a565b50604082015181600201908051906020019061013092919061076a565b50606082015181600301908051906020019061014d92919061076a565b50608082015181600401908051906020019061016a92919061076a565b5060a082015181600501908051906020019061018792919061076a565b5060c08201518160060190805190602001906101a492919061076a565b5060e0820151816007019060036101bc9291906107f0565b5061010082015181600a0190805190602001906101da92919061076a565b5061012082015181600b0190805190602001906101f892919061076a565b509050506001600081548092919061020f90610f63565b91905055507f1800aa729195b42c87eebc0a7c8a20b002254c04af93534778e984c28bd8f56b8160405161024391906111c4565b60405180910390a150565b60015481565b600060205280600052604060002060009150905080600001805461027790611215565b80601f01602080910402602001604051908101604052809291908181526020018280546102a390611215565b80156102f05780601f106102c5576101008083540402835291602001916102f0565b820191906000526020600020905b8154815290600101906020018083116102d357829003601f168201915b50505050509080600101805461030590611215565b80601f016020809104026020016040519081016040528092919081815260200182805461033190611215565b801561037e5780601f106103535761010080835404028352916020019161037e565b820191906000526020600020905b81548152906001019060200180831161036157829003601f168201915b50505050509080600201805461039390611215565b80601f01602080910402602001604051908101604052809291908181526020018280546103bf90611215565b801561040c5780601f106103e15761010080835404028352916020019161040c565b820191906000526020600020905b8154815290600101906020018083116103ef57829003601f168201915b50505050509080600301805461042190611215565b80601f016020809104026020016040519081016040528092919081815260200182805461044d90611215565b801561049a5780601f1061046f5761010080835404028352916020019161049a565b820191906000526020600020905b81548152906001019060200180831161047d57829003601f168201915b5050505050908060040180546104af90611215565b80601f01602080910402602001604051908101604052809291908181526020018280546104db90611215565b80156105285780601f106104fd57610100808354040283529160200191610528565b820191906000526020600020905b81548152906001019060200180831161050b57829003601f168201915b50505050509080600501805461053d90611215565b80601f016020809104026020016040519081016040528092919081815260200182805461056990611215565b80156105b65780601f1061058b576101008083540402835291602001916105b6565b820191906000526020600020905b81548152906001019060200180831161059957829003601f168201915b5050505050908060060180546105cb90611215565b80601f01602080910402602001604051908101604052809291908181526020018280546105f790611215565b80156106445780601f1061061957610100808354040283529160200191610644565b820191906000526020600020905b81548152906001019060200180831161062757829003601f168201915b50505050509080600a01805461065990611215565b80601f016020809104026020016040519081016040528092919081815260200182805461068590611215565b80156106d25780601f106106a7576101008083540402835291602001916106d2565b820191906000526020600020905b8154815290600101906020018083116106b557829003601f168201915b50505050509080600b0180546106e790611215565b80601f016020809104026020016040519081016040528092919081815260200182805461071390611215565b80156107605780601f1061073557610100808354040283529160200191610760565b820191906000526020600020905b81548152906001019060200180831161074357829003601f168201915b5050505050905089565b82805461077690611215565b90600052602060002090601f01602090048101928261079857600085556107df565b82601f106107b157805160ff19168380011785556107df565b828001600101855582156107df579182015b828111156107de5782518255916020019190600101906107c3565b5b5090506107ec9190610843565b5090565b8260038101928215610832579160200282015b8281111561083157825182908051906020019061082192919061076a565b5091602001919060010190610803565b5b50905061083f9190610860565b5090565b5b8082111561085c576000816000905550600101610844565b5090565b5b8082111561088057600081816108779190610884565b50600101610861565b5090565b50805461089090611215565b6000825580601f106108a257506108c1565b601f0160209004906000526020600020908101906108c09190610843565b5b50565b6000604051905090565b600080fd5b600080fd5b600080fd5b6000601f19601f8301169050919050565b7f4e487b7100000000000000000000000000000000000000000000000000000000600052604160045260246000fd5b610926826108dd565b810181811067ffffffffffffffff82111715610945576109446108ee565b5b80604052505050565b60006109586108c4565b9050610964828261091d565b919050565b600080fd5b600080fd5b600080fd5b600067ffffffffffffffff821115610993576109926108ee565b5b61099c826108dd565b9050602081019050919050565b82818337600083830152505050565b60006109cb6109c684610978565b61094e565b9050828152602081018484840111156109e7576109e6610973565b5b6109f28482856109a9565b509392505050565b600082601f830112610a0f57610a0e61096e565b5b8135610a1f8482602086016109b8565b91505092915050565b600067ffffffffffffffff821115610a4357610a426108ee565b5b602082029050919050565b600080fd5b6000610a66610a6184610a28565b61094e565b90508060208402830185811115610a8057610a7f610a4e565b5b835b81811015610ac757803567ffffffffffffffff811115610aa557610aa461096e565b5b808601610ab289826109fa565b85526020850194505050602081019050610a82565b5050509392505050565b600082601f830112610ae657610ae561096e565b5b6003610af3848285610a53565b91505092915050565b60006101408284031215610b1357610b126108d8565b5b610b1e61014061094e565b9050600082013567ffffffffffffffff811115610b3e57610b3d610969565b5b610b4a848285016109fa565b600083015250602082013567ffffffffffffffff811115610b6e57610b6d610969565b5b610b7a848285016109fa565b602083015250604082013567ffffffffffffffff811115610b9e57610b9d610969565b5b610baa848285016109fa565b604083015250606082013567ffffffffffffffff811115610bce57610bcd610969565b5b610bda848285016109fa565b606083015250608082013567ffffffffffffffff811115610bfe57610bfd610969565b5b610c0a848285016109fa565b60808301525060a082013567ffffffffffffffff811115610c2e57610c2d610969565b5b610c3a848285016109fa565b60a08301525060c082013567ffffffffffffffff811115610c5e57610c5d610969565b5b610c6a848285016109fa565b60c08301525060e082013567ffffffffffffffff811115610c8e57610c8d610969565b5b610c9a84828501610ad1565b60e08301525061010082013567ffffffffffffffff811115610cbf57610cbe610969565b5b610ccb848285016109fa565b6101008301525061012082013567ffffffffffffffff811115610cf157610cf0610969565b5b610cfd848285016109fa565b6101208301525092915050565b600060208284031215610d2057610d1f6108ce565b5b600082013567ffffffffffffffff811115610d3e57610d3d6108d3565b5b610d4a84828501610afc565b91505092915050565b6000819050919050565b610d6681610d53565b82525050565b6000602082019050610d816000830184610d5d565b92915050565b610d9081610d53565b8114610d9b57600080fd5b50565b600081359050610dad81610d87565b92915050565b600060208284031215610dc957610dc86108ce565b5b6000610dd784828501610d9e565b91505092915050565b600081519050919050565b600082825260208201905092915050565b60005b83811015610e1a578082015181840152602081019050610dff565b83811115610e29576000848401525b50505050565b6000610e3a82610de0565b610e448185610deb565b9350610e54818560208601610dfc565b610e5d816108dd565b840191505092915050565b6000610120820190508181036000830152610e83818c610e2f565b90508181036020830152610e97818b610e2f565b90508181036040830152610eab818a610e2f565b90508181036060830152610ebf8189610e2f565b90508181036080830152610ed38188610e2f565b905081810360a0830152610ee78187610e2f565b905081810360c0830152610efb8186610e2f565b905081810360e0830152610f0f8185610e2f565b9050818103610100830152610f248184610e2f565b90509a9950505050505050505050565b7f4e487b7100000000000000000000000000000000000000000000000000000000600052601160045260246000fd5b6000610f6e82610d53565b91507fffffffffffffffffffffffffffffffffffffffffffffffffffffffffffffffff8203610fa057610f9f610f34565b5b600182019050919050565b600082825260208201905092915050565b6000610fc782610de0565b610fd18185610fab565b9350610fe1818560208601610dfc565b610fea816108dd565b840191505092915050565b600060039050919050565b600081905092915050565b6000819050919050565b60006110218383610fbc565b905092915050565b6000602082019050919050565b600061104182610ff5565b61104b8185611000565b93508360208202850161105d8561100b565b8060005b85811015611099578484038952815161107a8582611015565b945061108583611029565b925060208a01995050600181019050611061565b50829750879550505050505092915050565b60006101408301600083015184820360008601526110c98282610fbc565b915050602083015184820360208601526110e38282610fbc565b915050604083015184820360408601526110fd8282610fbc565b915050606083015184820360608601526111178282610fbc565b915050608083015184820360808601526111318282610fbc565b91505060a083015184820360a086015261114b8282610fbc565b91505060c083015184820360c08601526111658282610fbc565b91505060e083015184820360e086015261117f8282611036565b91505061010083015184820361010086015261119b8282610fbc565b9150506101208301518482036101208601526111b78282610fbc565b9150508091505092915050565b600060208201905081810360008301526111de81846110ab565b905092915050565b7f4e487b7100000000000000000000000000000000000000000000000000000000600052602260045260246000fd5b6000600282049050600182168061122d57607f821691505b6020821081036112405761123f6111e6565b5b5091905056fea26469706673582212200eec009535e35def574b9492393159d549147aa1ba322388eda2ec5468d10a5e64736f6c634300080d0033",
  "immutableReferences": {},
  "source": "// SPDX-License-Identifier: MIT\npragma solidity ^0.8.13;\n\ncontract Employee {\n    struct EmployeeData {\n        string id;\n        string firstName;\n        string lastName;\n        string email;\n        string date;\n        string education;\n        string designation;\n        string[3] techStack;\n        string location;\n        string remarks;\n    }\n\n    event NewEmployee(EmployeeData);\n\n    mapping(uint => EmployeeData) public employeeList;\n    uint public employeeCount = 0;\n\n    function addEmployee(EmployeeData memory _employee) public payable {\n        employeeList[employeeCount] = _employee;\n        employeeCount++;\n        emit NewEmployee(_employee);\n    }\n}\n",
  "sourcePath": "/home/deq/Documents/Practice/blockchain-react/contracts/Employee.sol",
  "compiler": {
    "name": "solc",
    "version": "0.8.13+commit.abaa5c0e.Emscripten.clang"
  },
  "schemaVersion": "3.4.13",
  "updatedAt": "2023-05-23T07:37:12.931Z",
  "networkType": "ethereum",
  "devdoc": {
    "kind": "dev",
    "methods": {},
    "version": 1
  },
  "userdoc": {
    "kind": "user",
    "methods": {},
    "version": 1
  }
}