{
  "contractName": "Employee",
  "abi": [
    {
      "anonymous": false,
      "inputs": [
        {
          "indexed": true,
          "internalType": "string",
          "name": "id",
          "type": "string"
        },
        {
          "indexed": false,
          "internalType": "string",
          "name": "firstName",
          "type": "string"
        },
        {
          "indexed": false,
          "internalType": "string",
          "name": "lastName",
          "type": "string"
        },
        {
          "indexed": false,
          "internalType": "string",
          "name": "email",
          "type": "string"
        },
        {
          "indexed": false,
          "internalType": "string",
          "name": "date",
          "type": "string"
        },
        {
          "indexed": false,
          "internalType": "string",
          "name": "education",
          "type": "string"
        },
        {
          "indexed": false,
          "internalType": "string",
          "name": "designation",
          "type": "string"
        },
        {
          "indexed": false,
          "internalType": "string[]",
          "name": "techStack",
          "type": "string[]"
        },
        {
          "indexed": false,
          "internalType": "string",
          "name": "location",
          "type": "string"
        },
        {
          "indexed": false,
          "internalType": "string",
          "name": "remarks",
          "type": "string"
        }
      ],
      "name": "NewEmployee",
      "type": "event"
    },
    {
      "inputs": [],
      "name": "employeeCount",
      "outputs": [
        {
          "internalType": "uint256",
          "name": "",
          "type": "uint256"
        }
      ],
      "stateMutability": "view",
      "type": "function"
    },
    {
      "inputs": [
        {
          "internalType": "string",
          "name": "",
          "type": "string"
        }
      ],
      "name": "employeeList",
      "outputs": [
        {
          "internalType": "string",
          "name": "id",
          "type": "string"
        },
        {
          "internalType": "string",
          "name": "firstName",
          "type": "string"
        },
        {
          "internalType": "string",
          "name": "lastName",
          "type": "string"
        },
        {
          "internalType": "string",
          "name": "email",
          "type": "string"
        },
        {
          "internalType": "string",
          "name": "date",
          "type": "string"
        },
        {
          "internalType": "string",
          "name": "education",
          "type": "string"
        },
        {
          "internalType": "string",
          "name": "designation",
          "type": "string"
        },
        {
          "internalType": "string",
          "name": "location",
          "type": "string"
        },
        {
          "internalType": "string",
          "name": "remarks",
          "type": "string"
        }
      ],
      "stateMutability": "view",
      "type": "function"
    },
    {
      "inputs": [
        {
          "components": [
            {
              "internalType": "string",
              "name": "id",
              "type": "string"
            },
            {
              "internalType": "string",
              "name": "firstName",
              "type": "string"
            },
            {
              "internalType": "string",
              "name": "lastName",
              "type": "string"
            },
            {
              "internalType": "string",
              "name": "email",
              "type": "string"
            },
            {
              "internalType": "string",
              "name": "date",
              "type": "string"
            },
            {
              "internalType": "string",
              "name": "education",
              "type": "string"
            },
            {
              "internalType": "string",
              "name": "designation",
              "type": "string"
            },
            {
              "internalType": "string[]",
              "name": "techStack",
              "type": "string[]"
            },
            {
              "internalType": "string",
              "name": "location",
              "type": "string"
            },
            {
              "internalType": "string",
              "name": "remarks",
              "type": "string"
            }
          ],
          "internalType": "struct Employee.EmployeeData",
          "name": "_employee",
          "type": "tuple"
        }
      ],
      "name": "addEmployee",
      "outputs": [],
      "stateMutability": "payable",
      "type": "function"
    }
  ],
  "bytecode": "0x6080604052600060015534801561001557600080fd5b506112f4806100256000396000f3fe6080604052600436106100345760003560e01c80635d25e01514610039578063869fac1a1461007e5780639047bf581461009a575b600080fd5b34801561004557600080fd5b50610060600480360381019061005b9190610aa4565b6100c5565b60405161007599989796959493929190610b75565b60405180910390f35b61009860048036038101906100939190610f3f565b6105f1565b005b3480156100a657600080fd5b506100af6107dd565b6040516100bc9190610fa1565b60405180910390f35b6000818051602081018201805184825260208301602085012081835280955050505050506000915090508060000180546100fe90610feb565b80601f016020809104026020016040519081016040528092919081815260200182805461012a90610feb565b80156101775780601f1061014c57610100808354040283529160200191610177565b820191906000526020600020905b81548152906001019060200180831161015a57829003601f168201915b50505050509080600101805461018c90610feb565b80601f01602080910402602001604051908101604052809291908181526020018280546101b890610feb565b80156102055780601f106101da57610100808354040283529160200191610205565b820191906000526020600020905b8154815290600101906020018083116101e857829003601f168201915b50505050509080600201805461021a90610feb565b80601f016020809104026020016040519081016040528092919081815260200182805461024690610feb565b80156102935780601f1061026857610100808354040283529160200191610293565b820191906000526020600020905b81548152906001019060200180831161027657829003601f168201915b5050505050908060030180546102a890610feb565b80601f01602080910402602001604051908101604052809291908181526020018280546102d490610feb565b80156103215780601f106102f657610100808354040283529160200191610321565b820191906000526020600020905b81548152906001019060200180831161030457829003601f168201915b50505050509080600401805461033690610feb565b80601f016020809104026020016040519081016040528092919081815260200182805461036290610feb565b80156103af5780601f10610384576101008083540402835291602001916103af565b820191906000526020600020905b81548152906001019060200180831161039257829003601f168201915b5050505050908060050180546103c490610feb565b80601f01602080910402602001604051908101604052809291908181526020018280546103f090610feb565b801561043d5780601f106104125761010080835404028352916020019161043d565b820191906000526020600020905b81548152906001019060200180831161042057829003601f168201915b50505050509080600601805461045290610feb565b80601f016020809104026020016040519081016040528092919081815260200182805461047e90610feb565b80156104cb5780601f106104a0576101008083540402835291602001916104cb565b820191906000526020600020905b8154815290600101906020018083116104ae57829003601f168201915b5050505050908060080180546104e090610feb565b80601f016020809104026020016040519081016040528092919081815260200182805461050c90610feb565b80156105595780601f1061052e57610100808354040283529160200191610559565b820191906000526020600020905b81548152906001019060200180831161053c57829003601f168201915b50505050509080600901805461056e90610feb565b80601f016020809104026020016040519081016040528092919081815260200182805461059a90610feb565b80156105e75780601f106105bc576101008083540402835291602001916105e7565b820191906000526020600020905b8154815290600101906020018083116105ca57829003601f168201915b5050505050905089565b80600082600001516040516106069190611058565b908152602001604051809103902060008201518160000190805190602001906106309291906107e3565b50602082015181600101908051906020019061064d9291906107e3565b50604082015181600201908051906020019061066a9291906107e3565b5060608201518160030190805190602001906106879291906107e3565b5060808201518160040190805190602001906106a49291906107e3565b5060a08201518160050190805190602001906106c19291906107e3565b5060c08201518160060190805190602001906106de9291906107e3565b5060e08201518160070190805190602001906106fb929190610869565b506101008201518160080190805190602001906107199291906107e3565b506101208201518160090190805190602001906107379291906107e3565b509050506001600081548092919061074e9061109e565b919050555080600001516040516107659190611058565b60405180910390207f1e9ea113f181ed740849184054e4c13c9a708e9a2894d5da5e86a2621e4b9fc082602001518360400151846060015185608001518660c001518760a001518860e001518961010001518a61012001516040516107d2999897969594939291906111f2565b60405180910390a250565b60015481565b8280546107ef90610feb565b90600052602060002090601f0160209004810192826108115760008555610858565b82601f1061082a57805160ff1916838001178555610858565b82800160010185558215610858579182015b8281111561085757825182559160200191906001019061083c565b5b50905061086591906108c9565b5090565b8280548282559060005260206000209081019282156108b8579160200282015b828111156108b75782518290805190602001906108a79291906107e3565b5091602001919060010190610889565b5b5090506108c591906108e6565b5090565b5b808211156108e25760008160009055506001016108ca565b5090565b5b8082111561090657600081816108fd919061090a565b506001016108e7565b5090565b50805461091690610feb565b6000825580601f106109285750610947565b601f01602090049060005260206000209081019061094691906108c9565b5b50565b6000604051905090565b600080fd5b600080fd5b600080fd5b600080fd5b6000601f19601f8301169050919050565b7f4e487b7100000000000000000000000000000000000000000000000000000000600052604160045260246000fd5b6109b182610968565b810181811067ffffffffffffffff821117156109d0576109cf610979565b5b80604052505050565b60006109e361094a565b90506109ef82826109a8565b919050565b600067ffffffffffffffff821115610a0f57610a0e610979565b5b610a1882610968565b9050602081019050919050565b82818337600083830152505050565b6000610a47610a42846109f4565b6109d9565b905082815260208101848484011115610a6357610a62610963565b5b610a6e848285610a25565b509392505050565b600082601f830112610a8b57610a8a61095e565b5b8135610a9b848260208601610a34565b91505092915050565b600060208284031215610aba57610ab9610954565b5b600082013567ffffffffffffffff811115610ad857610ad7610959565b5b610ae484828501610a76565b91505092915050565b600081519050919050565b600082825260208201905092915050565b60005b83811015610b27578082015181840152602081019050610b0c565b83811115610b36576000848401525b50505050565b6000610b4782610aed565b610b518185610af8565b9350610b61818560208601610b09565b610b6a81610968565b840191505092915050565b6000610120820190508181036000830152610b90818c610b3c565b90508181036020830152610ba4818b610b3c565b90508181036040830152610bb8818a610b3c565b90508181036060830152610bcc8189610b3c565b90508181036080830152610be08188610b3c565b905081810360a0830152610bf48187610b3c565b905081810360c0830152610c088186610b3c565b905081810360e0830152610c1c8185610b3c565b9050818103610100830152610c318184610b3c565b90509a9950505050505050505050565b600080fd5b600080fd5b600067ffffffffffffffff821115610c6657610c65610979565b5b602082029050602081019050919050565b600080fd5b6000610c8f610c8a84610c4b565b6109d9565b90508083825260208201905060208402830185811115610cb257610cb1610c77565b5b835b81811015610cf957803567ffffffffffffffff811115610cd757610cd661095e565b5b808601610ce48982610a76565b85526020850194505050602081019050610cb4565b5050509392505050565b600082601f830112610d1857610d1761095e565b5b8135610d28848260208601610c7c565b91505092915050565b60006101408284031215610d4857610d47610c41565b5b610d536101406109d9565b9050600082013567ffffffffffffffff811115610d7357610d72610c46565b5b610d7f84828501610a76565b600083015250602082013567ffffffffffffffff811115610da357610da2610c46565b5b610daf84828501610a76565b602083015250604082013567ffffffffffffffff811115610dd357610dd2610c46565b5b610ddf84828501610a76565b604083015250606082013567ffffffffffffffff811115610e0357610e02610c46565b5b610e0f84828501610a76565b606083015250608082013567ffffffffffffffff811115610e3357610e32610c46565b5b610e3f84828501610a76565b60808301525060a082013567ffffffffffffffff811115610e6357610e62610c46565b5b610e6f84828501610a76565b60a08301525060c082013567ffffffffffffffff811115610e9357610e92610c46565b5b610e9f84828501610a76565b60c08301525060e082013567ffffffffffffffff811115610ec357610ec2610c46565b5b610ecf84828501610d03565b60e08301525061010082013567ffffffffffffffff811115610ef457610ef3610c46565b5b610f0084828501610a76565b6101008301525061012082013567ffffffffffffffff811115610f2657610f25610c46565b5b610f3284828501610a76565b6101208301525092915050565b600060208284031215610f5557610f54610954565b5b600082013567ffffffffffffffff811115610f7357610f72610959565b5b610f7f84828501610d31565b91505092915050565b6000819050919050565b610f9b81610f88565b82525050565b6000602082019050610fb66000830184610f92565b92915050565b7f4e487b7100000000000000000000000000000000000000000000000000000000600052602260045260246000fd5b6000600282049050600182168061100357607f821691505b60208210810361101657611015610fbc565b5b50919050565b600081905092915050565b600061103282610aed565b61103c818561101c565b935061104c818560208601610b09565b80840191505092915050565b60006110648284611027565b915081905092915050565b7f4e487b7100000000000000000000000000000000000000000000000000000000600052601160045260246000fd5b60006110a982610f88565b91507fffffffffffffffffffffffffffffffffffffffffffffffffffffffffffffffff82036110db576110da61106f565b5b600182019050919050565b600081519050919050565b600082825260208201905092915050565b6000819050602082019050919050565b600082825260208201905092915050565b600061112e82610aed565b6111388185611112565b9350611148818560208601610b09565b61115181610968565b840191505092915050565b60006111688383611123565b905092915050565b6000602082019050919050565b6000611188826110e6565b61119281856110f1565b9350836020820285016111a485611102565b8060005b858110156111e057848403895281516111c1858261115c565b94506111cc83611170565b925060208a019950506001810190506111a8565b50829750879550505050505092915050565b600061012082019050818103600083015261120d818c610b3c565b90508181036020830152611221818b610b3c565b90508181036040830152611235818a610b3c565b905081810360608301526112498189610b3c565b9050818103608083015261125d8188610b3c565b905081810360a08301526112718187610b3c565b905081810360c0830152611285818661117d565b905081810360e08301526112998185610b3c565b90508181036101008301526112ae8184610b3c565b90509a995050505050505050505056fea2646970667358221220371cae1408bc63e17351b0c3d2d34806969ee396711ae5bdf3e00818d94fc08c64736f6c634300080d0033",
  "immutableReferences": {},
  "source": "// SPDX-License-Identifier: MIT\npragma solidity ^0.8.13;\n\ncontract Employee {\n    struct EmployeeData {\n        string id;\n        string firstName;\n        string lastName;\n        string email;\n        string date;\n        string education;\n        string designation;\n        string[] techStack;\n        string location;\n        string remarks;\n    }\n\n    event NewEmployee(\n        string indexed id,\n        string firstName,\n        string lastName,\n        string email,\n        string date,\n        string education,\n        string designation,\n        string[] techStack,\n        string location,\n        string remarks\n    );\n\n    mapping(string => EmployeeData) public employeeList;\n    uint public employeeCount = 0;\n\n    function addEmployee(EmployeeData memory _employee) public payable {\n        employeeList[_employee.id] = _employee;\n        employeeCount++;\n        emit NewEmployee(\n            _employee.id,\n            _employee.firstName,\n            _employee.lastName,\n            _employee.email,\n            _employee.date,\n            _employee.designation,\n            _employee.education,\n            _employee.techStack,\n            _employee.location,\n            _employee.remarks\n        );\n    }\n}\n",
  "sourcePath": "/home/deq/Documents/Practice/blockchain-react/contracts/Employee.sol",
  "compiler": {
    "name": "solc",
    "version": "0.8.13+commit.abaa5c0e.Emscripten.clang"
  },
  "schemaVersion": "3.4.13",
  "updatedAt": "2023-05-19T13:05:14.142Z",
  "devdoc": {
    "kind": "dev",
    "methods": {},
    "version": 1
  },
  "userdoc": {
    "kind": "user",
    "methods": {},
    "version": 1
  }
}