{
  "contractName": "Employee",
  "abi": [
    {
      "anonymous": false,
      "inputs": [
        {
          "components": [
            {
              "internalType": "string",
              "name": "id",
              "type": "string"
            },
            {
              "internalType": "string",
              "name": "firstName",
              "type": "string"
            },
            {
              "internalType": "string",
              "name": "lastName",
              "type": "string"
            },
            {
              "internalType": "string",
              "name": "email",
              "type": "string"
            },
            {
              "internalType": "string",
              "name": "date",
              "type": "string"
            },
            {
              "internalType": "string",
              "name": "education",
              "type": "string"
            },
            {
              "internalType": "string",
              "name": "designation",
              "type": "string"
            },
            {
              "internalType": "string[]",
              "name": "techStack",
              "type": "string[]"
            },
            {
              "internalType": "string",
              "name": "location",
              "type": "string"
            },
            {
              "internalType": "string",
              "name": "remarks",
              "type": "string"
            }
          ],
          "indexed": false,
          "internalType": "struct Employee.EmployeeData",
          "name": "",
          "type": "tuple"
        }
      ],
      "name": "NewEmployee",
      "type": "event"
    },
    {
      "inputs": [],
      "name": "employeeCount",
      "outputs": [
        {
          "internalType": "uint256",
          "name": "",
          "type": "uint256"
        }
      ],
      "stateMutability": "view",
      "type": "function",
      "constant": true
    },
    {
      "inputs": [
        {
          "internalType": "string",
          "name": "",
          "type": "string"
        }
      ],
      "name": "employeeList",
      "outputs": [
        {
          "internalType": "string",
          "name": "id",
          "type": "string"
        },
        {
          "internalType": "string",
          "name": "firstName",
          "type": "string"
        },
        {
          "internalType": "string",
          "name": "lastName",
          "type": "string"
        },
        {
          "internalType": "string",
          "name": "email",
          "type": "string"
        },
        {
          "internalType": "string",
          "name": "date",
          "type": "string"
        },
        {
          "internalType": "string",
          "name": "education",
          "type": "string"
        },
        {
          "internalType": "string",
          "name": "designation",
          "type": "string"
        },
        {
          "internalType": "string",
          "name": "location",
          "type": "string"
        },
        {
          "internalType": "string",
          "name": "remarks",
          "type": "string"
        }
      ],
      "stateMutability": "view",
      "type": "function",
      "constant": true
    },
    {
      "inputs": [
        {
          "components": [
            {
              "internalType": "string",
              "name": "id",
              "type": "string"
            },
            {
              "internalType": "string",
              "name": "firstName",
              "type": "string"
            },
            {
              "internalType": "string",
              "name": "lastName",
              "type": "string"
            },
            {
              "internalType": "string",
              "name": "email",
              "type": "string"
            },
            {
              "internalType": "string",
              "name": "date",
              "type": "string"
            },
            {
              "internalType": "string",
              "name": "education",
              "type": "string"
            },
            {
              "internalType": "string",
              "name": "designation",
              "type": "string"
            },
            {
              "internalType": "string[]",
              "name": "techStack",
              "type": "string[]"
            },
            {
              "internalType": "string",
              "name": "location",
              "type": "string"
            },
            {
              "internalType": "string",
              "name": "remarks",
              "type": "string"
            }
          ],
          "internalType": "struct Employee.EmployeeData",
          "name": "_employee",
          "type": "tuple"
        }
      ],
      "name": "addEmployee",
      "outputs": [],
      "stateMutability": "payable",
      "type": "function",
      "payable": true
    }
  ],
  "bytecode": "0x6080604052600060015534801561001557600080fd5b50611313806100256000396000f3fe6080604052600436106100345760003560e01c80635d25e01514610039578063869fac1a1461007e5780639047bf581461009a575b600080fd5b34801561004557600080fd5b50610060600480360381019061005b9190610a54565b6100c5565b60405161007599989796959493929190610b25565b60405180910390f35b61009860048036038101906100939190610eef565b6105f1565b005b3480156100a657600080fd5b506100af61078d565b6040516100bc9190610f51565b60405180910390f35b6000818051602081018201805184825260208301602085012081835280955050505050506000915090508060000180546100fe90610f9b565b80601f016020809104026020016040519081016040528092919081815260200182805461012a90610f9b565b80156101775780601f1061014c57610100808354040283529160200191610177565b820191906000526020600020905b81548152906001019060200180831161015a57829003601f168201915b50505050509080600101805461018c90610f9b565b80601f01602080910402602001604051908101604052809291908181526020018280546101b890610f9b565b80156102055780601f106101da57610100808354040283529160200191610205565b820191906000526020600020905b8154815290600101906020018083116101e857829003601f168201915b50505050509080600201805461021a90610f9b565b80601f016020809104026020016040519081016040528092919081815260200182805461024690610f9b565b80156102935780601f1061026857610100808354040283529160200191610293565b820191906000526020600020905b81548152906001019060200180831161027657829003601f168201915b5050505050908060030180546102a890610f9b565b80601f01602080910402602001604051908101604052809291908181526020018280546102d490610f9b565b80156103215780601f106102f657610100808354040283529160200191610321565b820191906000526020600020905b81548152906001019060200180831161030457829003601f168201915b50505050509080600401805461033690610f9b565b80601f016020809104026020016040519081016040528092919081815260200182805461036290610f9b565b80156103af5780601f10610384576101008083540402835291602001916103af565b820191906000526020600020905b81548152906001019060200180831161039257829003601f168201915b5050505050908060050180546103c490610f9b565b80601f01602080910402602001604051908101604052809291908181526020018280546103f090610f9b565b801561043d5780601f106104125761010080835404028352916020019161043d565b820191906000526020600020905b81548152906001019060200180831161042057829003601f168201915b50505050509080600601805461045290610f9b565b80601f016020809104026020016040519081016040528092919081815260200182805461047e90610f9b565b80156104cb5780601f106104a0576101008083540402835291602001916104cb565b820191906000526020600020905b8154815290600101906020018083116104ae57829003601f168201915b5050505050908060080180546104e090610f9b565b80601f016020809104026020016040519081016040528092919081815260200182805461050c90610f9b565b80156105595780601f1061052e57610100808354040283529160200191610559565b820191906000526020600020905b81548152906001019060200180831161053c57829003601f168201915b50505050509080600901805461056e90610f9b565b80601f016020809104026020016040519081016040528092919081815260200182805461059a90610f9b565b80156105e75780601f106105bc576101008083540402835291602001916105e7565b820191906000526020600020905b8154815290600101906020018083116105ca57829003601f168201915b5050505050905089565b80600082600001516040516106069190611008565b90815260200160405180910390206000820151816000019080519060200190610630929190610793565b50602082015181600101908051906020019061064d929190610793565b50604082015181600201908051906020019061066a929190610793565b506060820151816003019080519060200190610687929190610793565b5060808201518160040190805190602001906106a4929190610793565b5060a08201518160050190805190602001906106c1929190610793565b5060c08201518160060190805190602001906106de929190610793565b5060e08201518160070190805190602001906106fb929190610819565b50610100820151816008019080519060200190610719929190610793565b50610120820151816009019080519060200190610737929190610793565b509050506001600081548092919061074e9061104e565b91905055507f49da409eed47a7d92d3d6d32da1329a4fd6fad008c4c9874b0ae6db0544d27178160405161078291906112bb565b60405180910390a150565b60015481565b82805461079f90610f9b565b90600052602060002090601f0160209004810192826107c15760008555610808565b82601f106107da57805160ff1916838001178555610808565b82800160010185558215610808579182015b828111156108075782518255916020019190600101906107ec565b5b5090506108159190610879565b5090565b828054828255906000526020600020908101928215610868579160200282015b82811115610867578251829080519060200190610857929190610793565b5091602001919060010190610839565b5b5090506108759190610896565b5090565b5b8082111561089257600081600090555060010161087a565b5090565b5b808211156108b657600081816108ad91906108ba565b50600101610897565b5090565b5080546108c690610f9b565b6000825580601f106108d857506108f7565b601f0160209004906000526020600020908101906108f69190610879565b5b50565b6000604051905090565b600080fd5b600080fd5b600080fd5b600080fd5b6000601f19601f8301169050919050565b7f4e487b7100000000000000000000000000000000000000000000000000000000600052604160045260246000fd5b61096182610918565b810181811067ffffffffffffffff821117156109805761097f610929565b5b80604052505050565b60006109936108fa565b905061099f8282610958565b919050565b600067ffffffffffffffff8211156109bf576109be610929565b5b6109c882610918565b9050602081019050919050565b82818337600083830152505050565b60006109f76109f2846109a4565b610989565b905082815260208101848484011115610a1357610a12610913565b5b610a1e8482856109d5565b509392505050565b600082601f830112610a3b57610a3a61090e565b5b8135610a4b8482602086016109e4565b91505092915050565b600060208284031215610a6a57610a69610904565b5b600082013567ffffffffffffffff811115610a8857610a87610909565b5b610a9484828501610a26565b91505092915050565b600081519050919050565b600082825260208201905092915050565b60005b83811015610ad7578082015181840152602081019050610abc565b83811115610ae6576000848401525b50505050565b6000610af782610a9d565b610b018185610aa8565b9350610b11818560208601610ab9565b610b1a81610918565b840191505092915050565b6000610120820190508181036000830152610b40818c610aec565b90508181036020830152610b54818b610aec565b90508181036040830152610b68818a610aec565b90508181036060830152610b7c8189610aec565b90508181036080830152610b908188610aec565b905081810360a0830152610ba48187610aec565b905081810360c0830152610bb88186610aec565b905081810360e0830152610bcc8185610aec565b9050818103610100830152610be18184610aec565b90509a9950505050505050505050565b600080fd5b600080fd5b600067ffffffffffffffff821115610c1657610c15610929565b5b602082029050602081019050919050565b600080fd5b6000610c3f610c3a84610bfb565b610989565b90508083825260208201905060208402830185811115610c6257610c61610c27565b5b835b81811015610ca957803567ffffffffffffffff811115610c8757610c8661090e565b5b808601610c948982610a26565b85526020850194505050602081019050610c64565b5050509392505050565b600082601f830112610cc857610cc761090e565b5b8135610cd8848260208601610c2c565b91505092915050565b60006101408284031215610cf857610cf7610bf1565b5b610d03610140610989565b9050600082013567ffffffffffffffff811115610d2357610d22610bf6565b5b610d2f84828501610a26565b600083015250602082013567ffffffffffffffff811115610d5357610d52610bf6565b5b610d5f84828501610a26565b602083015250604082013567ffffffffffffffff811115610d8357610d82610bf6565b5b610d8f84828501610a26565b604083015250606082013567ffffffffffffffff811115610db357610db2610bf6565b5b610dbf84828501610a26565b606083015250608082013567ffffffffffffffff811115610de357610de2610bf6565b5b610def84828501610a26565b60808301525060a082013567ffffffffffffffff811115610e1357610e12610bf6565b5b610e1f84828501610a26565b60a08301525060c082013567ffffffffffffffff811115610e4357610e42610bf6565b5b610e4f84828501610a26565b60c08301525060e082013567ffffffffffffffff811115610e7357610e72610bf6565b5b610e7f84828501610cb3565b60e08301525061010082013567ffffffffffffffff811115610ea457610ea3610bf6565b5b610eb084828501610a26565b6101008301525061012082013567ffffffffffffffff811115610ed657610ed5610bf6565b5b610ee284828501610a26565b6101208301525092915050565b600060208284031215610f0557610f04610904565b5b600082013567ffffffffffffffff811115610f2357610f22610909565b5b610f2f84828501610ce1565b91505092915050565b6000819050919050565b610f4b81610f38565b82525050565b6000602082019050610f666000830184610f42565b92915050565b7f4e487b7100000000000000000000000000000000000000000000000000000000600052602260045260246000fd5b60006002820490506001821680610fb357607f821691505b602082108103610fc657610fc5610f6c565b5b50919050565b600081905092915050565b6000610fe282610a9d565b610fec8185610fcc565b9350610ffc818560208601610ab9565b80840191505092915050565b60006110148284610fd7565b915081905092915050565b7f4e487b7100000000000000000000000000000000000000000000000000000000600052601160045260246000fd5b600061105982610f38565b91507fffffffffffffffffffffffffffffffffffffffffffffffffffffffffffffffff820361108b5761108a61101f565b5b600182019050919050565b600082825260208201905092915050565b60006110b282610a9d565b6110bc8185611096565b93506110cc818560208601610ab9565b6110d581610918565b840191505092915050565b600081519050919050565b600082825260208201905092915050565b6000819050602082019050919050565b600061111883836110a7565b905092915050565b6000602082019050919050565b6000611138826110e0565b61114281856110eb565b935083602082028501611154856110fc565b8060005b858110156111905784840389528151611171858261110c565b945061117c83611120565b925060208a01995050600181019050611158565b50829750879550505050505092915050565b60006101408301600083015184820360008601526111c082826110a7565b915050602083015184820360208601526111da82826110a7565b915050604083015184820360408601526111f482826110a7565b9150506060830151848203606086015261120e82826110a7565b9150506080830151848203608086015261122882826110a7565b91505060a083015184820360a086015261124282826110a7565b91505060c083015184820360c086015261125c82826110a7565b91505060e083015184820360e0860152611276828261112d565b91505061010083015184820361010086015261129282826110a7565b9150506101208301518482036101208601526112ae82826110a7565b9150508091505092915050565b600060208201905081810360008301526112d581846111a2565b90509291505056fea2646970667358221220cb709103954e3177c2ec093e2efa0df54d972664e1c8fece1983cc94ae1f6d3964736f6c634300080d0033",
  "immutableReferences": {},
  "source": "// SPDX-License-Identifier: MIT\npragma solidity ^0.8.13;\n\ncontract Employee {\n    struct EmployeeData {\n        string id;\n        string firstName;\n        string lastName;\n        string email;\n        string date;\n        string education;\n        string designation;\n        string[] techStack;\n        string location;\n        string remarks;\n    }\n\n    event NewEmployee(EmployeeData);\n\n    mapping(string => EmployeeData) public employeeList;\n    uint public employeeCount = 0;\n\n    function addEmployee(EmployeeData memory _employee) public payable {\n        employeeList[_employee.id] = _employee;\n        employeeCount++;\n        emit NewEmployee(_employee);\n    }\n}\n",
  "sourcePath": "/home/deq/Documents/Practice/blockchain-react/contracts/Employee.sol",
  "compiler": {
    "name": "solc",
    "version": "0.8.13+commit.abaa5c0e.Emscripten.clang"
  },
  "schemaVersion": "3.4.13",
  "updatedAt": "2023-05-23T05:29:02.365Z",
  "networkType": "ethereum",
  "devdoc": {
    "kind": "dev",
    "methods": {},
    "version": 1
  },
  "userdoc": {
    "kind": "user",
    "methods": {},
    "version": 1
  }
}