{
  "contractName": "Employee",
  "abi": [
    {
      "anonymous": false,
      "inputs": [
        {
          "components": [
            {
              "internalType": "string",
              "name": "id",
              "type": "string"
            },
            {
              "internalType": "string",
              "name": "firstName",
              "type": "string"
            },
            {
              "internalType": "string",
              "name": "lastName",
              "type": "string"
            },
            {
              "internalType": "string",
              "name": "email",
              "type": "string"
            },
            {
              "internalType": "string",
              "name": "date",
              "type": "string"
            },
            {
              "internalType": "string",
              "name": "education",
              "type": "string"
            },
            {
              "internalType": "string",
              "name": "designation",
              "type": "string"
            },
            {
              "internalType": "string[]",
              "name": "techStack",
              "type": "string[]"
            },
            {
              "internalType": "string",
              "name": "location",
              "type": "string"
            },
            {
              "internalType": "string",
              "name": "remarks",
              "type": "string"
            }
          ],
          "indexed": false,
          "internalType": "struct Employee.EmployeeData",
          "name": "",
          "type": "tuple"
        }
      ],
      "name": "NewEmployee",
      "type": "event"
    },
    {
      "inputs": [],
      "name": "employeeCount",
      "outputs": [
        {
          "internalType": "uint256",
          "name": "",
          "type": "uint256"
        }
      ],
      "stateMutability": "view",
      "type": "function",
      "constant": true
    },
    {
      "inputs": [],
      "name": "getEmployeeList",
      "outputs": [
        {
          "components": [
            {
              "internalType": "string",
              "name": "id",
              "type": "string"
            },
            {
              "internalType": "string",
              "name": "firstName",
              "type": "string"
            },
            {
              "internalType": "string",
              "name": "lastName",
              "type": "string"
            },
            {
              "internalType": "string",
              "name": "email",
              "type": "string"
            },
            {
              "internalType": "string",
              "name": "date",
              "type": "string"
            },
            {
              "internalType": "string",
              "name": "education",
              "type": "string"
            },
            {
              "internalType": "string",
              "name": "designation",
              "type": "string"
            },
            {
              "internalType": "string[]",
              "name": "techStack",
              "type": "string[]"
            },
            {
              "internalType": "string",
              "name": "location",
              "type": "string"
            },
            {
              "internalType": "string",
              "name": "remarks",
              "type": "string"
            }
          ],
          "internalType": "struct Employee.EmployeeData[]",
          "name": "",
          "type": "tuple[]"
        }
      ],
      "stateMutability": "view",
      "type": "function",
      "constant": true
    },
    {
      "inputs": [
        {
          "components": [
            {
              "internalType": "string",
              "name": "id",
              "type": "string"
            },
            {
              "internalType": "string",
              "name": "firstName",
              "type": "string"
            },
            {
              "internalType": "string",
              "name": "lastName",
              "type": "string"
            },
            {
              "internalType": "string",
              "name": "email",
              "type": "string"
            },
            {
              "internalType": "string",
              "name": "date",
              "type": "string"
            },
            {
              "internalType": "string",
              "name": "education",
              "type": "string"
            },
            {
              "internalType": "string",
              "name": "designation",
              "type": "string"
            },
            {
              "internalType": "string[]",
              "name": "techStack",
              "type": "string[]"
            },
            {
              "internalType": "string",
              "name": "location",
              "type": "string"
            },
            {
              "internalType": "string",
              "name": "remarks",
              "type": "string"
            }
          ],
          "internalType": "struct Employee.EmployeeData",
          "name": "_employee",
          "type": "tuple"
        }
      ],
      "name": "addEmployee",
      "outputs": [],
      "stateMutability": "payable",
      "type": "function",
      "payable": true
    },
    {
      "inputs": [
        {
          "components": [
            {
              "internalType": "string",
              "name": "id",
              "type": "string"
            },
            {
              "internalType": "string",
              "name": "firstName",
              "type": "string"
            },
            {
              "internalType": "string",
              "name": "lastName",
              "type": "string"
            },
            {
              "internalType": "string",
              "name": "email",
              "type": "string"
            },
            {
              "internalType": "string",
              "name": "date",
              "type": "string"
            },
            {
              "internalType": "string",
              "name": "education",
              "type": "string"
            },
            {
              "internalType": "string",
              "name": "designation",
              "type": "string"
            },
            {
              "internalType": "string[]",
              "name": "techStack",
              "type": "string[]"
            },
            {
              "internalType": "string",
              "name": "location",
              "type": "string"
            },
            {
              "internalType": "string",
              "name": "remarks",
              "type": "string"
            }
          ],
          "internalType": "struct Employee.EmployeeData",
          "name": "_employee",
          "type": "tuple"
        }
      ],
      "name": "editEmployee",
      "outputs": [],
      "stateMutability": "payable",
      "type": "function",
      "payable": true
    },
    {
      "inputs": [
        {
          "internalType": "string",
          "name": "_id",
          "type": "string"
        }
      ],
      "name": "deleteEmployee",
      "outputs": [],
      "stateMutability": "payable",
      "type": "function",
      "payable": true
    },
    {
      "inputs": [
        {
          "internalType": "uint256",
          "name": "_indexOfElement",
          "type": "uint256"
        }
      ],
      "name": "deleteArrayElement",
      "outputs": [],
      "stateMutability": "payable",
      "type": "function",
      "payable": true
    }
  ],
  "bytecode": "0x6080604052600060015534801561001557600080fd5b50611f34806100256000396000f3fe6080604052600436106100555760003560e01c8063062278381461005a5780630b9362a214610076578063869fac1a146100a15780639047bf58146100bd578063d6f47589146100e8578063e168cd6014610104575b600080fd5b610074600480360381019061006f9190611424565b610120565b005b34801561008257600080fd5b5061008b61020e565b6040516100989190611792565b60405180910390f35b6100bb60048036038101906100b69190611ab2565b610869565b005b3480156100c957600080fd5b506100d2610a0d565b6040516100df9190611b14565b60405180910390f35b61010260048036038101906100fd9190611ab2565b610a13565b005b61011e60048036038101906101199190611b5b565b610c46565b005b60005b60015481101561020a576101e46000828154811061014457610143611b88565b5b90600052602060002090600a0201600001805461016090611be6565b80601f016020809104026020016040519081016040528092919081815260200182805461018c90611be6565b80156101d95780601f106101ae576101008083540402835291602001916101d9565b820191906000526020600020905b8154815290600101906020018083116101bc57829003601f168201915b505050505083610ff4565b156101f7576101f281610c46565b61020a565b808061020290611c46565b915050610123565b5050565b60606000805480602002602001604051908101604052809291908181526020016000905b8282101561086057838290600052602060002090600a02016040518061014001604052908160008201805461026690611be6565b80601f016020809104026020016040519081016040528092919081815260200182805461029290611be6565b80156102df5780601f106102b4576101008083540402835291602001916102df565b820191906000526020600020905b8154815290600101906020018083116102c257829003601f168201915b505050505081526020016001820180546102f890611be6565b80601f016020809104026020016040519081016040528092919081815260200182805461032490611be6565b80156103715780601f1061034657610100808354040283529160200191610371565b820191906000526020600020905b81548152906001019060200180831161035457829003601f168201915b5050505050815260200160028201805461038a90611be6565b80601f01602080910402602001604051908101604052809291908181526020018280546103b690611be6565b80156104035780601f106103d857610100808354040283529160200191610403565b820191906000526020600020905b8154815290600101906020018083116103e657829003601f168201915b5050505050815260200160038201805461041c90611be6565b80601f016020809104026020016040519081016040528092919081815260200182805461044890611be6565b80156104955780601f1061046a57610100808354040283529160200191610495565b820191906000526020600020905b81548152906001019060200180831161047857829003601f168201915b505050505081526020016004820180546104ae90611be6565b80601f01602080910402602001604051908101604052809291908181526020018280546104da90611be6565b80156105275780601f106104fc57610100808354040283529160200191610527565b820191906000526020600020905b81548152906001019060200180831161050a57829003601f168201915b5050505050815260200160058201805461054090611be6565b80601f016020809104026020016040519081016040528092919081815260200182805461056c90611be6565b80156105b95780601f1061058e576101008083540402835291602001916105b9565b820191906000526020600020905b81548152906001019060200180831161059c57829003601f168201915b505050505081526020016006820180546105d290611be6565b80601f01602080910402602001604051908101604052809291908181526020018280546105fe90611be6565b801561064b5780601f106106205761010080835404028352916020019161064b565b820191906000526020600020905b81548152906001019060200180831161062e57829003601f168201915b5050505050815260200160078201805480602002602001604051908101604052809291908181526020016000905b8282101561072557838290600052602060002001805461069890611be6565b80601f01602080910402602001604051908101604052809291908181526020018280546106c490611be6565b80156107115780601f106106e657610100808354040283529160200191610711565b820191906000526020600020905b8154815290600101906020018083116106f457829003601f168201915b505050505081526020019060010190610679565b50505050815260200160088201805461073d90611be6565b80601f016020809104026020016040519081016040528092919081815260200182805461076990611be6565b80156107b65780601f1061078b576101008083540402835291602001916107b6565b820191906000526020600020905b81548152906001019060200180831161079957829003601f168201915b505050505081526020016009820180546107cf90611be6565b80601f01602080910402602001604051908101604052809291908181526020018280546107fb90611be6565b80156108485780601f1061081d57610100808354040283529160200191610848565b820191906000526020600020905b81548152906001019060200180831161082b57829003601f168201915b50505050508152505081526020019060010190610232565b50505050905090565b60008190806001815401808255809150506001900390600052602060002090600a020160009091909190915060008201518160000190805190602001906108b192919061104d565b5060208201518160010190805190602001906108ce92919061104d565b5060408201518160020190805190602001906108eb92919061104d565b50606082015181600301908051906020019061090892919061104d565b50608082015181600401908051906020019061092592919061104d565b5060a082015181600501908051906020019061094292919061104d565b5060c082015181600601908051906020019061095f92919061104d565b5060e082015181600701908051906020019061097c9291906110d3565b5061010082015181600801908051906020019061099a92919061104d565b506101208201518160090190805190602001906109b892919061104d565b505050600160008154809291906109ce90611c46565b91905055507f49da409eed47a7d92d3d6d32da1329a4fd6fad008c4c9874b0ae6db0544d271781604051610a029190611da7565b60405180910390a150565b60015481565b60005b600154811015610c4257610adb60008281548110610a3757610a36611b88565b5b90600052602060002090600a02016000018054610a5390611be6565b80601f0160208091040260200160405190810160405280929190818152602001828054610a7f90611be6565b8015610acc5780601f10610aa157610100808354040283529160200191610acc565b820191906000526020600020905b815481529060010190602001808311610aaf57829003601f168201915b50505050508360000151610ff4565b15610c2f578160008281548110610af557610af4611b88565b5b90600052602060002090600a02016000820151816000019080519060200190610b1f92919061104d565b506020820151816001019080519060200190610b3c92919061104d565b506040820151816002019080519060200190610b5992919061104d565b506060820151816003019080519060200190610b7692919061104d565b506080820151816004019080519060200190610b9392919061104d565b5060a0820151816005019080519060200190610bb092919061104d565b5060c0820151816006019080519060200190610bcd92919061104d565b5060e0820151816007019080519060200190610bea9291906110d3565b50610100820151816008019080519060200190610c0892919061104d565b50610120820151816009019080519060200190610c2692919061104d565b50905050610c42565b8080610c3a90611c46565b915050610a16565b5050565b600154811015610ff1576001600080549050610c629190611dc9565b8103610d50576000805480610c7a57610c79611dfd565b5b60019003818190600052602060002090600a020160008082016000610c9f9190611133565b600182016000610caf9190611133565b600282016000610cbf9190611133565b600382016000610ccf9190611133565b600482016000610cdf9190611133565b600582016000610cef9190611133565b600682016000610cff9190611133565b600782016000610d0f9190611173565b600882016000610d1f9190611133565b600982016000610d2f9190611133565b5050905560016000815480929190610d4690611e2c565b9190505550610ff1565b60008190505b6001600080549050610d689190611dc9565b811015610f0c576000600182610d7e9190611e55565b81548110610d8f57610d8e611b88565b5b90600052602060002090600a020160008281548110610db157610db0611b88565b5b90600052602060002090600a02016000820181600001908054610dd390611be6565b610dde929190611194565b506001820181600101908054610df390611be6565b610dfe929190611194565b506002820181600201908054610e1390611be6565b610e1e929190611194565b506003820181600301908054610e3390611be6565b610e3e929190611194565b506004820181600401908054610e5390611be6565b610e5e929190611194565b506005820181600501908054610e7390611be6565b610e7e929190611194565b506006820181600601908054610e9390611be6565b610e9e929190611194565b506007820181600701908054610eb5929190611221565b506008820181600801908054610eca90611be6565b610ed5929190611194565b506009820181600901908054610eea90611be6565b610ef5929190611194565b509050508080610f0490611c46565b915050610d56565b506000805480610f1f57610f1e611dfd565b5b60019003818190600052602060002090600a020160008082016000610f449190611133565b600182016000610f549190611133565b600282016000610f649190611133565b600382016000610f749190611133565b600482016000610f849190611133565b600582016000610f949190611133565b600682016000610fa49190611133565b600782016000610fb49190611173565b600882016000610fc49190611133565b600982016000610fd49190611133565b5050905560016000815480929190610feb90611e2c565b91905055505b50565b6000816040516020016110079190611ee7565b604051602081830303815290604052805190602001208360405160200161102e9190611ee7565b6040516020818303038152906040528051906020012014905092915050565b82805461105990611be6565b90600052602060002090601f01602090048101928261107b57600085556110c2565b82601f1061109457805160ff19168380011785556110c2565b828001600101855582156110c2579182015b828111156110c15782518255916020019190600101906110a6565b5b5090506110cf9190611289565b5090565b828054828255906000526020600020908101928215611122579160200282015b8281111561112157825182908051906020019061111192919061104d565b50916020019190600101906110f3565b5b50905061112f91906112a6565b5090565b50805461113f90611be6565b6000825580601f106111515750611170565b601f01602090049060005260206000209081019061116f9190611289565b5b50565b508054600082559060005260206000209081019061119191906112a6565b50565b8280546111a090611be6565b90600052602060002090601f0160209004810192826111c25760008555611210565b82601f106111d35780548555611210565b8280016001018555821561121057600052602060002091601f016020900482015b8281111561120f5782548255916001019190600101906111f4565b5b50905061121d9190611289565b5090565b8280548282559060005260206000209081019282156112785760005260206000209182015b8281111561127757828290805461125c90611be6565b611267929190611194565b5091600101919060010190611246565b5b50905061128591906112a6565b5090565b5b808211156112a257600081600090555060010161128a565b5090565b5b808211156112c657600081816112bd9190611133565b506001016112a7565b5090565b6000604051905090565b600080fd5b600080fd5b600080fd5b600080fd5b6000601f19601f8301169050919050565b7f4e487b7100000000000000000000000000000000000000000000000000000000600052604160045260246000fd5b611331826112e8565b810181811067ffffffffffffffff821117156113505761134f6112f9565b5b80604052505050565b60006113636112ca565b905061136f8282611328565b919050565b600067ffffffffffffffff82111561138f5761138e6112f9565b5b611398826112e8565b9050602081019050919050565b82818337600083830152505050565b60006113c76113c284611374565b611359565b9050828152602081018484840111156113e3576113e26112e3565b5b6113ee8482856113a5565b509392505050565b600082601f83011261140b5761140a6112de565b5b813561141b8482602086016113b4565b91505092915050565b60006020828403121561143a576114396112d4565b5b600082013567ffffffffffffffff811115611458576114576112d9565b5b611464848285016113f6565b91505092915050565b600081519050919050565b600082825260208201905092915050565b6000819050602082019050919050565b600081519050919050565b600082825260208201905092915050565b60005b838110156114d35780820151818401526020810190506114b8565b838111156114e2576000848401525b50505050565b60006114f382611499565b6114fd81856114a4565b935061150d8185602086016114b5565b611516816112e8565b840191505092915050565b600081519050919050565b600082825260208201905092915050565b6000819050602082019050919050565b600061155983836114e8565b905092915050565b6000602082019050919050565b600061157982611521565b611583818561152c565b9350836020820285016115958561153d565b8060005b858110156115d157848403895281516115b2858261154d565b94506115bd83611561565b925060208a01995050600181019050611599565b50829750879550505050505092915050565b600061014083016000830151848203600086015261160182826114e8565b9150506020830151848203602086015261161b82826114e8565b9150506040830151848203604086015261163582826114e8565b9150506060830151848203606086015261164f82826114e8565b9150506080830151848203608086015261166982826114e8565b91505060a083015184820360a086015261168382826114e8565b91505060c083015184820360c086015261169d82826114e8565b91505060e083015184820360e08601526116b7828261156e565b9150506101008301518482036101008601526116d382826114e8565b9150506101208301518482036101208601526116ef82826114e8565b9150508091505092915050565b600061170883836115e3565b905092915050565b6000602082019050919050565b60006117288261146d565b6117328185611478565b93508360208202850161174485611489565b8060005b85811015611780578484038952815161176185826116fc565b945061176c83611710565b925060208a01995050600181019050611748565b50829750879550505050505092915050565b600060208201905081810360008301526117ac818461171d565b905092915050565b600080fd5b600080fd5b600067ffffffffffffffff8211156117d9576117d86112f9565b5b602082029050602081019050919050565b600080fd5b60006118026117fd846117be565b611359565b90508083825260208201905060208402830185811115611825576118246117ea565b5b835b8181101561186c57803567ffffffffffffffff81111561184a576118496112de565b5b80860161185789826113f6565b85526020850194505050602081019050611827565b5050509392505050565b600082601f83011261188b5761188a6112de565b5b813561189b8482602086016117ef565b91505092915050565b600061014082840312156118bb576118ba6117b4565b5b6118c6610140611359565b9050600082013567ffffffffffffffff8111156118e6576118e56117b9565b5b6118f2848285016113f6565b600083015250602082013567ffffffffffffffff811115611916576119156117b9565b5b611922848285016113f6565b602083015250604082013567ffffffffffffffff811115611946576119456117b9565b5b611952848285016113f6565b604083015250606082013567ffffffffffffffff811115611976576119756117b9565b5b611982848285016113f6565b606083015250608082013567ffffffffffffffff8111156119a6576119a56117b9565b5b6119b2848285016113f6565b60808301525060a082013567ffffffffffffffff8111156119d6576119d56117b9565b5b6119e2848285016113f6565b60a08301525060c082013567ffffffffffffffff811115611a0657611a056117b9565b5b611a12848285016113f6565b60c08301525060e082013567ffffffffffffffff811115611a3657611a356117b9565b5b611a4284828501611876565b60e08301525061010082013567ffffffffffffffff811115611a6757611a666117b9565b5b611a73848285016113f6565b6101008301525061012082013567ffffffffffffffff811115611a9957611a986117b9565b5b611aa5848285016113f6565b6101208301525092915050565b600060208284031215611ac857611ac76112d4565b5b600082013567ffffffffffffffff811115611ae657611ae56112d9565b5b611af2848285016118a4565b91505092915050565b6000819050919050565b611b0e81611afb565b82525050565b6000602082019050611b296000830184611b05565b92915050565b611b3881611afb565b8114611b4357600080fd5b50565b600081359050611b5581611b2f565b92915050565b600060208284031215611b7157611b706112d4565b5b6000611b7f84828501611b46565b91505092915050565b7f4e487b7100000000000000000000000000000000000000000000000000000000600052603260045260246000fd5b7f4e487b7100000000000000000000000000000000000000000000000000000000600052602260045260246000fd5b60006002820490506001821680611bfe57607f821691505b602082108103611c1157611c10611bb7565b5b50919050565b7f4e487b7100000000000000000000000000000000000000000000000000000000600052601160045260246000fd5b6000611c5182611afb565b91507fffffffffffffffffffffffffffffffffffffffffffffffffffffffffffffffff8203611c8357611c82611c17565b5b600182019050919050565b6000610140830160008301518482036000860152611cac82826114e8565b91505060208301518482036020860152611cc682826114e8565b91505060408301518482036040860152611ce082826114e8565b91505060608301518482036060860152611cfa82826114e8565b91505060808301518482036080860152611d1482826114e8565b91505060a083015184820360a0860152611d2e82826114e8565b91505060c083015184820360c0860152611d4882826114e8565b91505060e083015184820360e0860152611d62828261156e565b915050610100830151848203610100860152611d7e82826114e8565b915050610120830151848203610120860152611d9a82826114e8565b9150508091505092915050565b60006020820190508181036000830152611dc18184611c8e565b905092915050565b6000611dd482611afb565b9150611ddf83611afb565b925082821015611df257611df1611c17565b5b828203905092915050565b7f4e487b7100000000000000000000000000000000000000000000000000000000600052603160045260246000fd5b6000611e3782611afb565b915060008203611e4a57611e49611c17565b5b600182039050919050565b6000611e6082611afb565b9150611e6b83611afb565b9250827fffffffffffffffffffffffffffffffffffffffffffffffffffffffffffffffff03821115611ea057611e9f611c17565b5b828201905092915050565b600081905092915050565b6000611ec182611499565b611ecb8185611eab565b9350611edb8185602086016114b5565b80840191505092915050565b6000611ef38284611eb6565b91508190509291505056fea2646970667358221220a6f34b7f2e3115e23c9be7f104ee00c08fd4b76ff4dbe1330113a8a43c35f94864736f6c634300080d0033",
  "immutableReferences": {},
  "source": "// SPDX-License-Identifier: MIT\npragma solidity ^0.8.13;\n\ncontract Employee {\n    struct EmployeeData {\n        string id;\n        string firstName;\n        string lastName;\n        string email;\n        string date;\n        string education;\n        string designation;\n        string[] techStack;\n        string location;\n        string remarks;\n    }\n\n    event NewEmployee(EmployeeData);\n    EmployeeData[] employeeList;\n\n    uint public employeeCount = 0;\n\n    function getEmployeeList() public view returns (EmployeeData[] memory) {\n        return employeeList;\n    }\n\n    function addEmployee(EmployeeData memory _employee) public payable {\n        employeeList.push(_employee);\n        employeeCount++;\n        emit NewEmployee(_employee);\n    }\n\n    function editEmployee(EmployeeData memory _employee) public payable {\n        for (uint256 index = 0; index < employeeCount; index++) {\n            if (compareString(employeeList[index].id, _employee.id)) {\n                employeeList[index] = _employee;\n                break;\n            }\n        }\n    }\n\n    function deleteEmployee(string memory _id) public payable {\n        for (uint256 index = 0; index < employeeCount; index++) {\n            if (compareString(employeeList[index].id, _id)) {\n                deleteArrayElement(index);\n                break;\n            }\n        }\n    }\n\n    function compareString(\n        string memory a,\n        string memory b\n    ) internal pure returns (bool) {\n        return keccak256(abi.encodePacked(a)) == keccak256(abi.encodePacked(b));\n    }\n\n    function deleteArrayElement(uint _indexOfElement) public payable {\n        if (_indexOfElement >= employeeCount) return;\n        if (_indexOfElement == employeeList.length - 1) {\n            employeeList.pop();\n            employeeCount--;\n            return;\n        }\n        for (\n            uint256 index = _indexOfElement;\n            index < employeeList.length - 1;\n            index++\n        ) {\n            employeeList[index] = employeeList[index + 1];\n        }\n        employeeList.pop();\n        employeeCount--;\n    }\n}\n",
  "sourcePath": "/home/deq/Documents/Practice/blockchain-react/contracts/Employee.sol",
  "compiler": {
    "name": "solc",
    "version": "0.8.13+commit.abaa5c0e.Emscripten.clang"
  },
  "schemaVersion": "3.4.13",
  "updatedAt": "2023-05-24T12:20:26.344Z",
  "networkType": "ethereum",
  "devdoc": {
    "kind": "dev",
    "methods": {},
    "version": 1
  },
  "userdoc": {
    "kind": "user",
    "methods": {},
    "version": 1
  }
}